{
  "contractName": "CommitteeCreator",
  "abi": [
    {
      "constant": true,
      "inputs": [
        {
          "internalType": "uint256",
          "name": "",
          "type": "uint256"
        }
      ],
      "name": "deployedCommittee",
      "outputs": [
        {
          "internalType": "contract CAC",
          "name": "",
          "type": "address"
        }
      ],
      "payable": false,
      "stateMutability": "view",
      "type": "function"
    },
    {
      "constant": false,
      "inputs": [
        {
          "internalType": "uint256",
          "name": "minimumFund",
          "type": "uint256"
        }
      ],
      "name": "createCommittee",
      "outputs": [],
      "payable": false,
      "stateMutability": "nonpayable",
      "type": "function"
    },
    {
      "constant": true,
      "inputs": [],
      "name": "getDeployedCommittee",
      "outputs": [
        {
          "internalType": "contract CAC[]",
          "name": "",
          "type": "address[]"
        }
      ],
      "payable": false,
      "stateMutability": "view",
      "type": "function"
    }
  ],
  "bytecode": "0x608060405234801561001057600080fd5b50610ec5806100206000396000f3fe608060405234801561001057600080fd5b50600436106100415760003560e01c80630b14830b14610046578063c733413e146100b4578063f6faedba14610113575b600080fd5b6100726004803603602081101561005c57600080fd5b8101908080359060200190929190505050610141565b604051808273ffffffffffffffffffffffffffffffffffffffff1673ffffffffffffffffffffffffffffffffffffffff16815260200191505060405180910390f35b6100bc61017d565b6040518080602001828103825283818151815260200191508051906020019060200280838360005b838110156100ff5780820151818401526020810190506100e4565b505050509050019250505060405180910390f35b61013f6004803603602081101561012957600080fd5b810190808035906020019092919050505061020b565b005b6000818154811061014e57fe5b906000526020600020016000915054906101000a900473ffffffffffffffffffffffffffffffffffffffff1681565b6060600080548060200260200160405190810160405280929190818152602001828054801561020157602002820191906000526020600020905b8160009054906101000a900473ffffffffffffffffffffffffffffffffffffffff1673ffffffffffffffffffffffffffffffffffffffff16815260200190600101908083116101b7575b5050505050905090565b6000813360405161021b906102e1565b808381526020018273ffffffffffffffffffffffffffffffffffffffff1673ffffffffffffffffffffffffffffffffffffffff16815260200192505050604051809103906000f080158015610274573d6000803e3d6000fd5b50905060008190806001815401808255809150509060018203906000526020600020016000909192909190916101000a81548173ffffffffffffffffffffffffffffffffffffffff021916908373ffffffffffffffffffffffffffffffffffffffff160217905550505050565b610ba2806102ef8339019056fe608060405234801561001057600080fd5b50604051610ba2380380610ba28339818101604052604081101561003357600080fd5b81019080805190602001909291908051906020019092919050505080600160006101000a81548173ffffffffffffffffffffffffffffffffffffffff021916908373ffffffffffffffffffffffffffffffffffffffff160217905550816002819055505050610afb806100a76000396000f3fe6080604052600436106100865760003560e01c806381d12c581161005957806381d12c58146101b157806382fde093146102b15780638a9cfd55146102dc5780639eedaf2e146103ce578063b688a3631461040957610086565b80630a1443911461008b578063481c6a75146100f457806366b30f061461014b5780636e417c6914610176575b600080fd5b34801561009757600080fd5b506100da600480360360208110156100ae57600080fd5b81019080803573ffffffffffffffffffffffffffffffffffffffff169060200190929190505050610413565b604051808215151515815260200191505060405180910390f35b34801561010057600080fd5b50610109610433565b604051808273ffffffffffffffffffffffffffffffffffffffff1673ffffffffffffffffffffffffffffffffffffffff16815260200191505060405180910390f35b34801561015757600080fd5b50610160610459565b6040518082815260200191505060405180910390f35b34801561018257600080fd5b506101af6004803603602081101561019957600080fd5b810190808035906020019092919050505061045f565b005b3480156101bd57600080fd5b506101ea600480360360208110156101d457600080fd5b810190808035906020019092919050505061059f565b60405180806020018681526020018573ffffffffffffffffffffffffffffffffffffffff1673ffffffffffffffffffffffffffffffffffffffff16815260200184151515158152602001838152602001828103825287818151815260200191508051906020019080838360005b83811015610272578082015181840152602081019050610257565b50505050905090810190601f16801561029f5780820380516001836020036101000a031916815260200191505b50965050505050505060405180910390f35b3480156102bd57600080fd5b506102c66106a7565b6040518082815260200191505060405180910390f35b3480156102e857600080fd5b506103cc600480360360608110156102ff57600080fd5b810190808035906020019064010000000081111561031c57600080fd5b82018360208201111561032e57600080fd5b8035906020019184600183028401116401000000008311171561035057600080fd5b91908080601f016020809104026020016040519081016040528093929190818152602001838380828437600081840152601f19601f82011690508083019250505050505050919291929080359060200190929190803573ffffffffffffffffffffffffffffffffffffffff1690602001909291905050506106ad565b005b3480156103da57600080fd5b50610407600480360360208110156103f157600080fd5b8101908080359060200190929190505050610821565b005b610411610960565b005b60036020528060005260406000206000915054906101000a900460ff1681565b600160009054906101000a900473ffffffffffffffffffffffffffffffffffffffff1681565b60025481565b600160009054906101000a900473ffffffffffffffffffffffffffffffffffffffff1673ffffffffffffffffffffffffffffffffffffffff163373ffffffffffffffffffffffffffffffffffffffff16146104b957600080fd5b60008082815481106104c757fe5b906000526020600020906005020190508060020160149054906101000a900460ff16156104f357600080fd5b6002600454816104ff57fe5b0481600301541161050f57600080fd5b8060020160009054906101000a900473ffffffffffffffffffffffffffffffffffffffff1673ffffffffffffffffffffffffffffffffffffffff166108fc82600101549081150290604051600060405180830381858888f1935050505015801561057d573d6000803e3d6000fd5b5060018160020160146101000a81548160ff0219169083151502179055505050565b600081815481106105ac57fe5b9060005260206000209060050201600091509050806000018054600181600116156101000203166002900480601f0160208091040260200160405190810160405280929190818152602001828054600181600116156101000203166002900480156106585780601f1061062d57610100808354040283529160200191610658565b820191906000526020600020905b81548152906001019060200180831161063b57829003601f168201915b5050505050908060010154908060020160009054906101000a900473ffffffffffffffffffffffffffffffffffffffff16908060020160149054906101000a900460ff16908060030154905085565b60045481565b600160009054906101000a900473ffffffffffffffffffffffffffffffffffffffff1673ffffffffffffffffffffffffffffffffffffffff163373ffffffffffffffffffffffffffffffffffffffff161461070757600080fd5b61070f6109da565b6040518060a001604052808581526020018481526020018373ffffffffffffffffffffffffffffffffffffffff1681526020016000151581526020016000815250905060008190806001815401808255809150509060018203906000526020600020906005020160009091929091909150600082015181600001908051906020019061079c929190610a21565b506020820151816001015560408201518160020160006101000a81548173ffffffffffffffffffffffffffffffffffffffff021916908373ffffffffffffffffffffffffffffffffffffffff16021790555060608201518160020160146101000a81548160ff0219169083151502179055506080820151816003015550505050505050565b600080828154811061082f57fe5b90600052602060002090600502019050600360003373ffffffffffffffffffffffffffffffffffffffff1673ffffffffffffffffffffffffffffffffffffffff16815260200190815260200160002060009054906101000a900460ff1661089557600080fd5b8060040160003373ffffffffffffffffffffffffffffffffffffffff1673ffffffffffffffffffffffffffffffffffffffff16815260200190815260200160002060009054906101000a900460ff16156108ee57600080fd5b806003016000815480929190600101919050555060018160040160003373ffffffffffffffffffffffffffffffffffffffff1673ffffffffffffffffffffffffffffffffffffffff16815260200190815260200160002060006101000a81548160ff0219169083151502179055505050565b600254341161096e57600080fd5b6001600360003373ffffffffffffffffffffffffffffffffffffffff1673ffffffffffffffffffffffffffffffffffffffff16815260200190815260200160002060006101000a81548160ff021916908315150217905550600460008154809291906001019190505550565b6040518060a001604052806060815260200160008152602001600073ffffffffffffffffffffffffffffffffffffffff168152602001600015158152602001600081525090565b828054600181600116156101000203166002900490600052602060002090601f016020900481019282601f10610a6257805160ff1916838001178555610a90565b82800160010185558215610a90579182015b82811115610a8f578251825591602001919060010190610a74565b5b509050610a9d9190610aa1565b5090565b610ac391905b80821115610abf576000816000905550600101610aa7565b5090565b9056fea265627a7a72315820fea4e3776e9966636b599b2b5fa01b7b16e141ba23d5d869960f0366b93233eb64736f6c63430005100032a265627a7a7231582023e8f7b5339607518773ce8dc14e63c08c0239834c5c6c957b29efb2d5db645464736f6c63430005100032",
  "source": "pragma solidity ^0.5.16;\r\nimport \"./CAC.sol\";\r\n\r\ncontract CommitteeCreator {\r\n    CAC[] public deployedCommittee;\r\n    function createCommittee(uint256 minimumFund) public {\r\n        CAC newCommittee = new CAC(minimumFund, msg.sender);\r\n        deployedCommittee.push(newCommittee);\r\n    }\r\n    function getDeployedCommittee() public view returns (CAC[] memory) {\r\n        return deployedCommittee;\r\n    }\r\n}",
  "sourcePath": "C:\\Users\\Admin\\Desktop\\BCIC_LABS\\lab4_cac\\contracts\\CommitteeCreator.sol",
  "compiler": {
    "name": "solc",
    "version": "0.5.16+commit.9c3226ce.Emscripten.clang"
  },
  "schemaVersion": "3.4.16",
  "updatedAt": "2026-05-29T09:05:46.563Z",
  "networkType": "ethereum",
  "devdoc": {
    "methods": {}
  },
  "userdoc": {
    "methods": {}
  }
}