{
  "contractName": "GMR",
  "abi": [
    {
      "inputs": [],
      "payable": false,
      "stateMutability": "nonpayable",
      "type": "constructor"
    },
    {
      "constant": true,
      "inputs": [],
      "name": "manager",
      "outputs": [
        {
          "internalType": "address",
          "name": "",
          "type": "address"
        }
      ],
      "payable": false,
      "stateMutability": "view",
      "type": "function"
    },
    {
      "constant": true,
      "inputs": [
        {
          "internalType": "uint256",
          "name": "",
          "type": "uint256"
        }
      ],
      "name": "players",
      "outputs": [
        {
          "internalType": "address payable",
          "name": "",
          "type": "address"
        }
      ],
      "payable": false,
      "stateMutability": "view",
      "type": "function"
    },
    {
      "constant": false,
      "inputs": [],
      "name": "enterGame",
      "outputs": [],
      "payable": true,
      "stateMutability": "payable",
      "type": "function"
    },
    {
      "constant": true,
      "inputs": [],
      "name": "chooseByTime",
      "outputs": [
        {
          "internalType": "uint256",
          "name": "",
          "type": "uint256"
        }
      ],
      "payable": false,
      "stateMutability": "view",
      "type": "function"
    },
    {
      "constant": true,
      "inputs": [],
      "name": "getBalance",
      "outputs": [
        {
          "internalType": "uint256",
          "name": "",
          "type": "uint256"
        }
      ],
      "payable": false,
      "stateMutability": "view",
      "type": "function"
    },
    {
      "constant": false,
      "inputs": [],
      "name": "payMoneyToPlayer",
      "outputs": [],
      "payable": false,
      "stateMutability": "nonpayable",
      "type": "function"
    },
    {
      "constant": true,
      "inputs": [],
      "name": "getCurrentPlayers",
      "outputs": [
        {
          "internalType": "address payable[]",
          "name": "",
          "type": "address[]"
        }
      ],
      "payable": false,
      "stateMutability": "view",
      "type": "function"
    }
  ],
  "bytecode": "0x608060405234801561001057600080fd5b50336000806101000a81548173ffffffffffffffffffffffffffffffffffffffff021916908373ffffffffffffffffffffffffffffffffffffffff160217905550610513806100606000396000f3fe6080604052600436106100705760003560e01c80633a5075261161004e5780633a50752614610116578063481c6a7514610141578063d9a54b2614610198578063f71d96cb146101af57610070565b806302cac05c1461007557806312065fe0146100e1578063218bd5771461010c575b600080fd5b34801561008157600080fd5b5061008a61022a565b6040518080602001828103825283818151815260200191508051906020019060200280838360005b838110156100cd5780820151818401526020810190506100b2565b505050509050019250505060405180910390f35b3480156100ed57600080fd5b506100f66102b8565b6040518082815260200191505060405180910390f35b6101146102c0565b005b34801561012257600080fd5b5061012b610328565b6040518082815260200191505060405180910390f35b34801561014d57600080fd5b50610156610343565b604051808273ffffffffffffffffffffffffffffffffffffffff1673ffffffffffffffffffffffffffffffffffffffff16815260200191505060405180910390f35b3480156101a457600080fd5b506101ad610368565b005b3480156101bb57600080fd5b506101e8600480360360208110156101d257600080fd5b810190808035906020019092919050505061045c565b604051808273ffffffffffffffffffffffffffffffffffffffff1673ffffffffffffffffffffffffffffffffffffffff16815260200191505060405180910390f35b606060018054806020026020016040519081016040528092919081815260200182805480156102ae57602002820191906000526020600020905b8160009054906101000a900473ffffffffffffffffffffffffffffffffffffffff1673ffffffffffffffffffffffffffffffffffffffff1681526020019060010190808311610264575b5050505050905090565b600047905090565b60013390806001815401808255809150509060018203906000526020600020016000909192909190916101000a81548173ffffffffffffffffffffffffffffffffffffffff021916908373ffffffffffffffffffffffffffffffffffffffff16021790555050565b600080600180549050428161033957fe5b0690508091505090565b6000809054906101000a900473ffffffffffffffffffffffffffffffffffffffff1681565b6000809054906101000a900473ffffffffffffffffffffffffffffffffffffffff1673ffffffffffffffffffffffffffffffffffffffff163373ffffffffffffffffffffffffffffffffffffffff16146103c157600080fd5b60006103cb610328565b9050600181815481106103da57fe5b9060005260206000200160009054906101000a900473ffffffffffffffffffffffffffffffffffffffff1673ffffffffffffffffffffffffffffffffffffffff166108fc479081150290604051600060405180830381858888f1935050505015801561044a573d6000803e3d6000fd5b50600160006104599190610498565b50565b6001818154811061046957fe5b906000526020600020016000915054906101000a900473ffffffffffffffffffffffffffffffffffffffff1681565b50805460008255906000526020600020908101906104b691906104b9565b50565b6104db91905b808211156104d75760008160009055506001016104bf565b5090565b9056fea265627a7a7231582045d9e7bc598fa0be75632a56031162cfcbebbac9bb02bef2cb88a8e3f509866464736f6c63430005100032",
  "source": "// SPDX-License-Identifier: MIT\npragma solidity ^0.5.16;\n\ncontract GMR {\n    address public manager;\n    address payable[] public players;\n\n    constructor() public {\n        manager = msg.sender;\n    }\n\n    function enterGame() public payable {\n        players.push(msg.sender);\n    }\n\n    function chooseByTime() public view returns (uint) {\n        uint result = now % players.length;\n        return result;\n    }\n\n    function getBalance() public view returns (uint) {\n        return address(this).balance;\n    }\n\n    function payMoneyToPlayer() public restricted{\n        uint winnerId = chooseByTime();\n        players[winnerId].transfer(address(this).balance);\n        //清空陣列，此寫法 gas fee 較高\n        //players = new address payable[](0);\n        //推薦寫法\n        delete players;\n    }\n    modifier restricted() {\n      require(msg.sender == manager);\n      _;\n    }\n\n    function getCurrentPlayers() public view returns(address payable[] memory) {\n      return players;\n    }\n}\n",
  "sourcePath": "C:\\Users\\Admin\\Desktop\\BCIC_LABS\\lab1\\contracts\\GMR.sol",
  "compiler": {
    "name": "solc",
    "version": "0.5.16+commit.9c3226ce.Emscripten.clang"
  },
  "schemaVersion": "3.4.16",
  "updatedAt": "2026-05-28T08:46:46.049Z",
  "networkType": "ethereum",
  "devdoc": {
    "methods": {}
  },
  "userdoc": {
    "methods": {}
  }
}